{
  "contractName": "ArtAuction",
  "abi": [
    {
      "inputs": [],
      "stateMutability": "nonpayable",
      "type": "constructor"
    },
    {
      "anonymous": false,
      "inputs": [
        {
          "indexed": true,
          "internalType": "address",
          "name": "owner",
          "type": "address"
        },
        {
          "indexed": true,
          "internalType": "address",
          "name": "approved",
          "type": "address"
        },
        {
          "indexed": true,
          "internalType": "uint256",
          "name": "tokenId",
          "type": "uint256"
        }
      ],
      "name": "Approval",
      "type": "event"
    },
    {
      "anonymous": false,
      "inputs": [
        {
          "indexed": true,
          "internalType": "address",
          "name": "owner",
          "type": "address"
        },
        {
          "indexed": true,
          "internalType": "address",
          "name": "operator",
          "type": "address"
        },
        {
          "indexed": false,
          "internalType": "bool",
          "name": "approved",
          "type": "bool"
        }
      ],
      "name": "ApprovalForAll",
      "type": "event"
    },
    {
      "anonymous": false,
      "inputs": [
        {
          "indexed": false,
          "internalType": "uint256",
          "name": "_artItemIds",
          "type": "uint256"
        },
        {
          "indexed": false,
          "internalType": "string",
          "name": "name",
          "type": "string"
        },
        {
          "indexed": true,
          "internalType": "address payable",
          "name": "seller",
          "type": "address"
        },
        {
          "indexed": false,
          "internalType": "uint256",
          "name": "price",
          "type": "uint256"
        },
        {
          "indexed": false,
          "internalType": "uint256",
          "name": "nowTime",
          "type": "uint256"
        },
        {
          "indexed": false,
          "internalType": "uint256",
          "name": "timePeriod",
          "type": "uint256"
        }
      ],
      "name": "LogAddItem",
      "type": "event"
    },
    {
      "anonymous": false,
      "inputs": [
        {
          "indexed": true,
          "internalType": "address",
          "name": "bidder",
          "type": "address"
        },
        {
          "indexed": true,
          "internalType": "uint256",
          "name": "artItemId",
          "type": "uint256"
        },
        {
          "indexed": false,
          "internalType": "uint256",
          "name": "bid",
          "type": "uint256"
        },
        {
          "indexed": true,
          "internalType": "address",
          "name": "highestBidder",
          "type": "address"
        },
        {
          "indexed": false,
          "internalType": "uint256",
          "name": "highestBid",
          "type": "uint256"
        },
        {
          "indexed": false,
          "internalType": "uint256",
          "name": "highestBindingBid",
          "type": "uint256"
        }
      ],
      "name": "LogBid",
      "type": "event"
    },
    {
      "anonymous": false,
      "inputs": [
        {
          "indexed": true,
          "internalType": "uint256",
          "name": "artItemId",
          "type": "uint256"
        },
        {
          "indexed": true,
          "internalType": "address",
          "name": "seller",
          "type": "address"
        },
        {
          "indexed": true,
          "internalType": "address",
          "name": "winner",
          "type": "address"
        }
      ],
      "name": "LogCanceled",
      "type": "event"
    },
    {
      "anonymous": false,
      "inputs": [
        {
          "indexed": true,
          "internalType": "address",
          "name": "withdrawer",
          "type": "address"
        },
        {
          "indexed": true,
          "internalType": "address",
          "name": "withdrawalAccount",
          "type": "address"
        },
        {
          "indexed": false,
          "internalType": "uint256",
          "name": "amount",
          "type": "uint256"
        }
      ],
      "name": "LogWithdrawal",
      "type": "event"
    },
    {
      "anonymous": false,
      "inputs": [
        {
          "indexed": true,
          "internalType": "address",
          "name": "from",
          "type": "address"
        },
        {
          "indexed": true,
          "internalType": "address",
          "name": "to",
          "type": "address"
        },
        {
          "indexed": true,
          "internalType": "uint256",
          "name": "tokenId",
          "type": "uint256"
        }
      ],
      "name": "Transfer",
      "type": "event"
    },
    {
      "inputs": [],
      "name": "_artItemIds",
      "outputs": [
        {
          "internalType": "uint256",
          "name": "",
          "type": "uint256"
        }
      ],
      "stateMutability": "view",
      "type": "function"
    },
    {
      "inputs": [],
      "name": "_tokenIds",
      "outputs": [
        {
          "internalType": "uint256",
          "name": "",
          "type": "uint256"
        }
      ],
      "stateMutability": "view",
      "type": "function"
    },
    {
      "inputs": [
        {
          "internalType": "uint256",
          "name": "price",
          "type": "uint256"
        },
        {
          "internalType": "string",
          "name": "tokenURI",
          "type": "string"
        },
        {
          "internalType": "uint256",
          "name": "_bidincrement",
          "type": "uint256"
        },
        {
          "internalType": "uint256",
          "name": "timePeriod",
          "type": "uint256"
        },
        {
          "internalType": "string",
          "name": "name",
          "type": "string"
        }
      ],
      "name": "addArtItem",
      "outputs": [],
      "stateMutability": "nonpayable",
      "type": "function"
    },
    {
      "inputs": [
        {
          "internalType": "address",
          "name": "to",
          "type": "address"
        },
        {
          "internalType": "uint256",
          "name": "tokenId",
          "type": "uint256"
        }
      ],
      "name": "approve",
      "outputs": [],
      "stateMutability": "nonpayable",
      "type": "function"
    },
    {
      "inputs": [
        {
          "internalType": "address",
          "name": "owner",
          "type": "address"
        }
      ],
      "name": "balanceOf",
      "outputs": [
        {
          "internalType": "uint256",
          "name": "",
          "type": "uint256"
        }
      ],
      "stateMutability": "view",
      "type": "function"
    },
    {
      "inputs": [],
      "name": "baseURI",
      "outputs": [
        {
          "internalType": "string",
          "name": "",
          "type": "string"
        }
      ],
      "stateMutability": "view",
      "type": "function"
    },
    {
      "inputs": [
        {
          "internalType": "uint256",
          "name": "",
          "type": "uint256"
        }
      ],
      "name": "bid",
      "outputs": [
        {
          "internalType": "uint256",
          "name": "highestBindingBid",
          "type": "uint256"
        },
        {
          "internalType": "address payable",
          "name": "highestBidder",
          "type": "address"
        }
      ],
      "stateMutability": "view",
      "type": "function"
    },
    {
      "inputs": [
        {
          "internalType": "uint256",
          "name": "id",
          "type": "uint256"
        }
      ],
      "name": "cancelAuction",
      "outputs": [
        {
          "internalType": "bool",
          "name": "success",
          "type": "bool"
        }
      ],
      "stateMutability": "payable",
      "type": "function"
    },
    {
      "inputs": [
        {
          "internalType": "uint256",
          "name": "",
          "type": "uint256"
        },
        {
          "internalType": "address",
          "name": "",
          "type": "address"
        }
      ],
      "name": "fundsByBidder",
      "outputs": [
        {
          "internalType": "uint256",
          "name": "",
          "type": "uint256"
        }
      ],
      "stateMutability": "view",
      "type": "function"
    },
    {
      "inputs": [
        {
          "internalType": "uint256",
          "name": "tokenId",
          "type": "uint256"
        }
      ],
      "name": "getApproved",
      "outputs": [
        {
          "internalType": "address",
          "name": "",
          "type": "address"
        }
      ],
      "stateMutability": "view",
      "type": "function"
    },
    {
      "inputs": [
        {
          "internalType": "uint256",
          "name": "id",
          "type": "uint256"
        }
      ],
      "name": "getArtItem",
      "outputs": [
        {
          "internalType": "uint256",
          "name": "",
          "type": "uint256"
        },
        {
          "internalType": "uint256",
          "name": "",
          "type": "uint256"
        },
        {
          "internalType": "string",
          "name": "",
          "type": "string"
        },
        {
          "internalType": "uint256",
          "name": "",
          "type": "uint256"
        },
        {
          "internalType": "uint256",
          "name": "",
          "type": "uint256"
        },
        {
          "internalType": "uint256",
          "name": "",
          "type": "uint256"
        },
        {
          "internalType": "bool",
          "name": "",
          "type": "bool"
        },
        {
          "internalType": "string",
          "name": "",
          "type": "string"
        },
        {
          "internalType": "address payable",
          "name": "",
          "type": "address"
        }
      ],
      "stateMutability": "view",
      "type": "function"
    },
    {
      "inputs": [
        {
          "internalType": "address",
          "name": "owner",
          "type": "address"
        },
        {
          "internalType": "address",
          "name": "operator",
          "type": "address"
        }
      ],
      "name": "isApprovedForAll",
      "outputs": [
        {
          "internalType": "bool",
          "name": "",
          "type": "bool"
        }
      ],
      "stateMutability": "view",
      "type": "function"
    },
    {
      "inputs": [],
      "name": "name",
      "outputs": [
        {
          "internalType": "string",
          "name": "",
          "type": "string"
        }
      ],
      "stateMutability": "view",
      "type": "function"
    },
    {
      "inputs": [],
      "name": "owner",
      "outputs": [
        {
          "internalType": "address",
          "name": "",
          "type": "address"
        }
      ],
      "stateMutability": "view",
      "type": "function"
    },
    {
      "inputs": [
        {
          "internalType": "uint256",
          "name": "tokenId",
          "type": "uint256"
        }
      ],
      "name": "ownerOf",
      "outputs": [
        {
          "internalType": "address",
          "name": "",
          "type": "address"
        }
      ],
      "stateMutability": "view",
      "type": "function"
    },
    {
      "inputs": [
        {
          "internalType": "uint256",
          "name": "id",
          "type": "uint256"
        }
      ],
      "name": "placeBid",
      "outputs": [
        {
          "internalType": "bool",
          "name": "success",
          "type": "bool"
        }
      ],
      "stateMutability": "payable",
      "type": "function"
    },
    {
      "inputs": [
        {
          "internalType": "address",
          "name": "from",
          "type": "address"
        },
        {
          "internalType": "address",
          "name": "to",
          "type": "address"
        },
        {
          "internalType": "uint256",
          "name": "tokenId",
          "type": "uint256"
        }
      ],
      "name": "safeTransferFrom",
      "outputs": [],
      "stateMutability": "nonpayable",
      "type": "function"
    },
    {
      "inputs": [
        {
          "internalType": "address",
          "name": "from",
          "type": "address"
        },
        {
          "internalType": "address",
          "name": "to",
          "type": "address"
        },
        {
          "internalType": "uint256",
          "name": "tokenId",
          "type": "uint256"
        },
        {
          "internalType": "bytes",
          "name": "_data",
          "type": "bytes"
        }
      ],
      "name": "safeTransferFrom",
      "outputs": [],
      "stateMutability": "nonpayable",
      "type": "function"
    },
    {
      "inputs": [
        {
          "internalType": "address",
          "name": "operator",
          "type": "address"
        },
        {
          "internalType": "bool",
          "name": "approved",
          "type": "bool"
        }
      ],
      "name": "setApprovalForAll",
      "outputs": [],
      "stateMutability": "nonpayable",
      "type": "function"
    },
    {
      "inputs": [
        {
          "internalType": "bytes4",
          "name": "interfaceId",
          "type": "bytes4"
        }
      ],
      "name": "supportsInterface",
      "outputs": [
        {
          "internalType": "bool",
          "name": "",
          "type": "bool"
        }
      ],
      "stateMutability": "view",
      "type": "function"
    },
    {
      "inputs": [],
      "name": "symbol",
      "outputs": [
        {
          "internalType": "string",
          "name": "",
          "type": "string"
        }
      ],
      "stateMutability": "view",
      "type": "function"
    },
    {
      "inputs": [
        {
          "internalType": "uint256",
          "name": "index",
          "type": "uint256"
        }
      ],
      "name": "tokenByIndex",
      "outputs": [
        {
          "internalType": "uint256",
          "name": "",
          "type": "uint256"
        }
      ],
      "stateMutability": "view",
      "type": "function"
    },
    {
      "inputs": [
        {
          "internalType": "address",
          "name": "owner",
          "type": "address"
        },
        {
          "internalType": "uint256",
          "name": "index",
          "type": "uint256"
        }
      ],
      "name": "tokenOfOwnerByIndex",
      "outputs": [
        {
          "internalType": "uint256",
          "name": "",
          "type": "uint256"
        }
      ],
      "stateMutability": "view",
      "type": "function"
    },
    {
      "inputs": [
        {
          "internalType": "uint256",
          "name": "tokenId",
          "type": "uint256"
        }
      ],
      "name": "tokenURI",
      "outputs": [
        {
          "internalType": "string",
          "name": "",
          "type": "string"
        }
      ],
      "stateMutability": "view",
      "type": "function"
    },
    {
      "inputs": [],
      "name": "totalSupply",
      "outputs": [
        {
          "internalType": "uint256",
          "name": "",
          "type": "uint256"
        }
      ],
      "stateMutability": "view",
      "type": "function"
    },
    {
      "inputs": [
        {
          "internalType": "address",
          "name": "from",
          "type": "address"
        },
        {
          "internalType": "address",
          "name": "to",
          "type": "address"
        },
        {
          "internalType": "uint256",
          "name": "tokenId",
          "type": "uint256"
        }
      ],
      "name": "transferFrom",
      "outputs": [],
      "stateMutability": "nonpayable",
      "type": "function"
    },
    {
      "inputs": [
        {
          "internalType": "uint256",
          "name": "id",
          "type": "uint256"
        }
      ],
      "name": "withdraw",
      "outputs": [
        {
          "internalType": "bool",
          "name": "success",
          "type": "bool"
        }
      ],
      "stateMutability": "payable",
      "type": "function"
    }
  ],
  "bytecode": "0x60806040526000601160006101000a81548160ff0219169083151502179055503480156200002c57600080fd5b506040518060400160405280600481526020017f44415254000000000000000000000000000000000000000000000000000000008152506040518060400160405280600381526020017f4152540000000000000000000000000000000000000000000000000000000000815250620000b16301ffc9a760e01b6200017460201b60201c565b8160069080519060200190620000c99291906200027d565b508060079080519060200190620000e29291906200027d565b50620000fb6380ac58cd60e01b6200017460201b60201c565b62000113635b5e139f60e01b6200017460201b60201c565b6200012b63780e9d6360e01b6200017460201b60201c565b505033600b60006101000a81548173ffffffffffffffffffffffffffffffffffffffff021916908373ffffffffffffffffffffffffffffffffffffffff1602179055506200032c565b63ffffffff60e01b817bffffffffffffffffffffffffffffffffffffffffffffffffffffffff1916141562000211576040517f08c379a000000000000000000000000000000000000000000000000000000000815260040180806020018281038252601c8152602001807f4552433136353a20696e76616c696420696e746572666163652069640000000081525060200191505060405180910390fd5b6001600080837bffffffffffffffffffffffffffffffffffffffffffffffffffffffff19167bffffffffffffffffffffffffffffffffffffffffffffffffffffffff1916815260200190815260200160002060006101000a81548160ff02191690831515021790555050565b828054600181600116156101000203166002900490600052602060002090601f016020900481019282601f10620002c057805160ff1916838001178555620002f1565b82800160010185558215620002f1579182015b82811115620002f0578251825591602001919060010190620002d3565b5b50905062000300919062000304565b5090565b6200032991905b80821115620003255760008160009055506001016200030b565b5090565b90565b614bff806200033c6000396000f3fe60806040526004361061019c5760003560e01c80634f6ccce7116100ec5780639979ef451161008a578063aa46a40011610064578063aa46a40014610cf8578063b88d4fde14610d23578063c87b56dd14610e35578063e985e9c514610ee95761019c565b80639979ef4514610ad8578063a22cb46514610b1e578063a25cf92d14610b7b5761019c565b806370a08231116100c657806370a08231146109465780638da5cb5b146109ab57806395d89b4114610a0257806396b5a75514610a925761019c565b80634f6ccce7146107ec5780636352211e1461083b5780636c0360eb146108b65761019c565b806321f004eb116101595780632e1a7d4d116101335780632e1a7d4d1461063a5780632f745c591461068057806342842e0e146106ef578063454a2ab31461076a5761019c565b806321f004eb146103cf57806323b872dd1461055057806326fe3065146105cb5761019c565b806301ffc9a7146101a157806306fdde0314610213578063081812fc146102a3578063095ea7b31461031e57806314797de71461037957806318160ddd146103a4575b600080fd5b3480156101ad57600080fd5b506101f9600480360360208110156101c457600080fd5b8101908080357bffffffffffffffffffffffffffffffffffffffffffffffffffffffff19169060200190929190505050610f72565b604051808215151515815260200191505060405180910390f35b34801561021f57600080fd5b50610228610fd9565b6040518080602001828103825283818151815260200191508051906020019080838360005b8381101561026857808201518184015260208101905061024d565b50505050905090810190601f1680156102955780820380516001836020036101000a031916815260200191505b509250505060405180910390f35b3480156102af57600080fd5b506102dc600480360360208110156102c657600080fd5b810190808035906020019092919050505061107b565b604051808273ffffffffffffffffffffffffffffffffffffffff1673ffffffffffffffffffffffffffffffffffffffff16815260200191505060405180910390f35b34801561032a57600080fd5b506103776004803603604081101561034157600080fd5b81019080803573ffffffffffffffffffffffffffffffffffffffff16906020019092919080359060200190929190505050611116565b005b34801561038557600080fd5b5061038e61125a565b6040518082815260200191505060405180910390f35b3480156103b057600080fd5b506103b9611260565b6040518082815260200191505060405180910390f35b3480156103db57600080fd5b50610408600480360360208110156103f257600080fd5b8101908080359060200190929190505050611271565b604051808a81526020018981526020018060200188815260200187815260200186815260200185151515158152602001806020018473ffffffffffffffffffffffffffffffffffffffff1673ffffffffffffffffffffffffffffffffffffffff16815260200183810383528a818151815260200191508051906020019080838360005b838110156104a657808201518184015260208101905061048b565b50505050905090810190601f1680156104d35780820380516001836020036101000a031916815260200191505b50838103825285818151815260200191508051906020019080838360005b8381101561050c5780820151818401526020810190506104f1565b50505050905090810190601f1680156105395780820380516001836020036101000a031916815260200191505b509b50505050505050505050505060405180910390f35b34801561055c57600080fd5b506105c96004803603606081101561057357600080fd5b81019080803573ffffffffffffffffffffffffffffffffffffffff169060200190929190803573ffffffffffffffffffffffffffffffffffffffff1690602001909291908035906020019092919050505061162d565b005b3480156105d757600080fd5b50610624600480360360408110156105ee57600080fd5b8101908080359060200190929190803573ffffffffffffffffffffffffffffffffffffffff1690602001909291905050506116a3565b6040518082815260200191505060405180910390f35b6106666004803603602081101561065057600080fd5b81019080803590602001909291905050506116c8565b604051808215151515815260200191505060405180910390f35b34801561068c57600080fd5b506106d9600480360360408110156106a357600080fd5b81019080803573ffffffffffffffffffffffffffffffffffffffff16906020019092919080359060200190929190505050611c36565b6040518082815260200191505060405180910390f35b3480156106fb57600080fd5b506107686004803603606081101561071257600080fd5b81019080803573ffffffffffffffffffffffffffffffffffffffff169060200190929190803573ffffffffffffffffffffffffffffffffffffffff16906020019092919080359060200190929190505050611c91565b005b34801561077657600080fd5b506107a36004803603602081101561078d57600080fd5b8101908080359060200190929190505050611cb1565b604051808381526020018273ffffffffffffffffffffffffffffffffffffffff1673ffffffffffffffffffffffffffffffffffffffff1681526020019250505060405180910390f35b3480156107f857600080fd5b506108256004803603602081101561080f57600080fd5b8101908080359060200190929190505050611cf5565b6040518082815260200191505060405180910390f35b34801561084757600080fd5b506108746004803603602081101561085e57600080fd5b8101908080359060200190929190505050611d18565b604051808273ffffffffffffffffffffffffffffffffffffffff1673ffffffffffffffffffffffffffffffffffffffff16815260200191505060405180910390f35b3480156108c257600080fd5b506108cb611d4f565b6040518080602001828103825283818151815260200191508051906020019080838360005b8381101561090b5780820151818401526020810190506108f0565b50505050905090810190601f1680156109385780820380516001836020036101000a031916815260200191505b509250505060405180910390f35b34801561095257600080fd5b506109956004803603602081101561096957600080fd5b81019080803573ffffffffffffffffffffffffffffffffffffffff169060200190929190505050611df1565b6040518082815260200191505060405180910390f35b3480156109b757600080fd5b506109c0611ec6565b604051808273ffffffffffffffffffffffffffffffffffffffff1673ffffffffffffffffffffffffffffffffffffffff16815260200191505060405180910390f35b348015610a0e57600080fd5b50610a17611eec565b6040518080602001828103825283818151815260200191508051906020019080838360005b83811015610a57578082015181840152602081019050610a3c565b50505050905090810190601f168015610a845780820380516001836020036101000a031916815260200191505b509250505060405180910390f35b610abe60048036036020811015610aa857600080fd5b8101908080359060200190929190505050611f8e565b604051808215151515815260200191505060405180910390f35b610b0460048036036020811015610aee57600080fd5b81019080803590602001909291905050506122b8565b604051808215151515815260200191505060405180910390f35b348015610b2a57600080fd5b50610b7960048036036040811015610b4157600080fd5b81019080803573ffffffffffffffffffffffffffffffffffffffff169060200190929190803515159060200190929190505050612b75565b005b348015610b8757600080fd5b50610cf6600480360360a0811015610b9e57600080fd5b810190808035906020019092919080359060200190640100000000811115610bc557600080fd5b820183602082011115610bd757600080fd5b80359060200191846001830284011164010000000083111715610bf957600080fd5b91908080601f016020809104026020016040519081016040528093929190818152602001838380828437600081840152601f19601f820116905080830192505050505050509192919290803590602001909291908035906020019092919080359060200190640100000000811115610c7057600080fd5b820183602082011115610c8257600080fd5b80359060200191846001830284011164010000000083111715610ca457600080fd5b91908080601f016020809104026020016040519081016040528093929190818152602001838380828437600081840152601f19601f820116905080830192505050505050509192919290505050612d2d565b005b348015610d0457600080fd5b50610d0d613020565b6040518082815260200191505060405180910390f35b348015610d2f57600080fd5b50610e3360048036036080811015610d4657600080fd5b81019080803573ffffffffffffffffffffffffffffffffffffffff169060200190929190803573ffffffffffffffffffffffffffffffffffffffff1690602001909291908035906020019092919080359060200190640100000000811115610dad57600080fd5b820183602082011115610dbf57600080fd5b80359060200191846001830284011164010000000083111715610de157600080fd5b91908080601f016020809104026020016040519081016040528093929190818152602001838380828437600081840152601f19601f820116905080830192505050505050509192919290505050613026565b005b348015610e4157600080fd5b50610e6e60048036036020811015610e5857600080fd5b810190808035906020019092919050505061309e565b6040518080602001828103825283818151815260200191508051906020019080838360005b83811015610eae578082015181840152602081019050610e93565b50505050905090810190601f168015610edb5780820380516001836020036101000a031916815260200191505b509250505060405180910390f35b348015610ef557600080fd5b50610f5860048036036040811015610f0c57600080fd5b81019080803573ffffffffffffffffffffffffffffffffffffffff169060200190929190803573ffffffffffffffffffffffffffffffffffffffff169060200190929190505050613387565b604051808215151515815260200191505060405180910390f35b6000806000837bffffffffffffffffffffffffffffffffffffffffffffffffffffffff19167bffffffffffffffffffffffffffffffffffffffffffffffffffffffff1916815260200190815260200160002060009054906101000a900460ff169050919050565b606060068054600181600116156101000203166002900480601f0160208091040260200160405190810160405280929190818152602001828054600181600116156101000203166002900480156110715780601f1061104657610100808354040283529160200191611071565b820191906000526020600020905b81548152906001019060200180831161105457829003601f168201915b5050505050905090565b60006110868261341b565b6110db576040517f08c379a000000000000000000000000000000000000000000000000000000000815260040180806020018281038252602c815260200180614ac8602c913960400191505060405180910390fd5b6004600083815260200190815260200160002060009054906101000a900473ffffffffffffffffffffffffffffffffffffffff169050919050565b600061112182611d18565b90508073ffffffffffffffffffffffffffffffffffffffff168373ffffffffffffffffffffffffffffffffffffffff1614156111a8576040517f08c379a0000000000000000000000000000000000000000000000000000000008152600401808060200182810382526021815260200180614b786021913960400191505060405180910390fd5b8073ffffffffffffffffffffffffffffffffffffffff166111c7613438565b73ffffffffffffffffffffffffffffffffffffffff1614806111f657506111f5816111f0613438565b613387565b5b61124b576040517f08c379a0000000000000000000000000000000000000000000000000000000008152600401808060200182810382526038815260200180614a1b6038913960400191505060405180910390fd5b6112558383613440565b505050565b600d5481565b600061126c60026134f9565b905090565b60008060606000806000806060600089600a600082815260200190815260200160002060030160009054906101000a900460ff16611317576040517f08c379a00000000000000000000000000000000000000000000000000000000081526004018080602001828103825260098152602001807f4e6f7420466f756e64000000000000000000000000000000000000000000000081525060200191505060405180910390fd5b61131f61478c565b600a60008d8152602001908152602001600020604051806101400160405290816000820160009054906101000a900473ffffffffffffffffffffffffffffffffffffffff1673ffffffffffffffffffffffffffffffffffffffff1673ffffffffffffffffffffffffffffffffffffffff16815260200160018201548152602001600282018054600181600116156101000203166002900480601f0160208091040260200160405190810160405280929190818152602001828054600181600116156101000203166002900480156114375780601f1061140c57610100808354040283529160200191611437565b820191906000526020600020905b81548152906001019060200180831161141a57829003601f168201915b505050505081526020016003820160009054906101000a900460ff161515151581526020016004820154815260200160058201548152602001600682015481526020016007820160009054906101000a900460ff161515151581526020016007820160019054906101000a900460ff16151515158152602001600882018054600181600116156101000203166002900480601f0160208091040260200160405190810160405280929190818152602001828054600181600116156101000203166002900480156115485780601f1061151d57610100808354040283529160200191611548565b820191906000526020600020905b81548152906001019060200180831161152b57829003601f168201915b505050505081525050905061155b6147fb565b601060008e8152602001908152602001600020604051806040016040529081600082015481526020016001820160009054906101000a900473ffffffffffffffffffffffffffffffffffffffff1673ffffffffffffffffffffffffffffffffffffffff1673ffffffffffffffffffffffffffffffffffffffff168152505090508c8260200151836040015183600001518560a001518660c001518760e0015188610120015189600001518696508191509b509b509b509b509b509b509b509b509b505050509193959799909294969850565b61163e611638613438565b8261350e565b611693576040517f08c379a0000000000000000000000000000000000000000000000000000000008152600401808060200182810382526031815260200180614b996031913960400191505060405180910390fd5b61169e838383613602565b505050565b600e602052816000526040600020602052806000526040600020600091509150505481565b6000816116d361478c565b600a6000838152602001908152602001600020604051806101400160405290816000820160009054906101000a900473ffffffffffffffffffffffffffffffffffffffff1673ffffffffffffffffffffffffffffffffffffffff1673ffffffffffffffffffffffffffffffffffffffff16815260200160018201548152602001600282018054600181600116156101000203166002900480601f0160208091040260200160405190810160405280929190818152602001828054600181600116156101000203166002900480156117eb5780601f106117c0576101008083540402835291602001916117eb565b820191906000526020600020905b8154815290600101906020018083116117ce57829003601f168201915b505050505081526020016003820160009054906101000a900460ff161515151581526020016004820154815260200160058201548152602001600682015481526020016007820160009054906101000a900460ff161515151581526020016007820160019054906101000a900460ff16151515158152602001600882018054600181600116156101000203166002900480601f0160208091040260200160405190810160405280929190818152602001828054600181600116156101000203166002900480156118fc5780601f106118d1576101008083540402835291602001916118fc565b820191906000526020600020905b8154815290600101906020018083116118df57829003601f168201915b5050505050815250509050806000015173ffffffffffffffffffffffffffffffffffffffff163373ffffffffffffffffffffffffffffffffffffffff16141561194457600080fd5b60011515600a600086815260200190815260200160002060070160009054906101000a900460ff1615151461197857600080fd5b60011515600a600086815260200190815260200160002060070160019054906101000a900460ff161515146119ac57600080fd5b60008060006010600088815260200190815260200160002090508060010160009054906101000a900473ffffffffffffffffffffffffffffffffffffffff1673ffffffffffffffffffffffffffffffffffffffff163373ffffffffffffffffffffffffffffffffffffffff161415611ac1578060010160009054906101000a900473ffffffffffffffffffffffffffffffffffffffff169250600e600088815260200190815260200160002060008260010160009054906101000a900473ffffffffffffffffffffffffffffffffffffffff1673ffffffffffffffffffffffffffffffffffffffff1673ffffffffffffffffffffffffffffffffffffffff168152602001908152602001600020549150611b18565b339250600e600088815260200190815260200160002060008473ffffffffffffffffffffffffffffffffffffffff1673ffffffffffffffffffffffffffffffffffffffff1681526020019081526020016000205491505b6000821415611b2657600080fd5b81600e600089815260200190815260200160002060008573ffffffffffffffffffffffffffffffffffffffff1673ffffffffffffffffffffffffffffffffffffffff168152602001908152602001600020600082825403925050819055503373ffffffffffffffffffffffffffffffffffffffff166108fc839081150290604051600060405180830381858888f19350505050611bc257600080fd5b8273ffffffffffffffffffffffffffffffffffffffff163373ffffffffffffffffffffffffffffffffffffffff16887f043b0257f82d3e2c722f6ac4756b9fbf0feedc637cc8e523608a89c559a9dc83856040518082815260200191505060405180910390a4600195505050505050919050565b6000611c8982600160008673ffffffffffffffffffffffffffffffffffffffff1673ffffffffffffffffffffffffffffffffffffffff16815260200190815260200160002061384590919063ffffffff16565b905092915050565b611cac83838360405180602001604052806000815250613026565b505050565b60106020528060005260406000206000915090508060000154908060010160009054906101000a900473ffffffffffffffffffffffffffffffffffffffff16905082565b600080611d0c83600261385f90919063ffffffff16565b50905080915050919050565b6000611d4882604051806060016040528060298152602001614a7d60299139600261388e9092919063ffffffff16565b9050919050565b606060098054600181600116156101000203166002900480601f016020809104026020016040519081016040528092919081815260200182805460018160011615610100020316600290048015611de75780601f10611dbc57610100808354040283529160200191611de7565b820191906000526020600020905b815481529060010190602001808311611dca57829003601f168201915b5050505050905090565b60008073ffffffffffffffffffffffffffffffffffffffff168273ffffffffffffffffffffffffffffffffffffffff161415611e78576040517f08c379a000000000000000000000000000000000000000000000000000000000815260040180806020018281038252602a815260200180614a53602a913960400191505060405180910390fd5b611ebf600160008473ffffffffffffffffffffffffffffffffffffffff1673ffffffffffffffffffffffffffffffffffffffff1681526020019081526020016000206138ad565b9050919050565b600b60009054906101000a900473ffffffffffffffffffffffffffffffffffffffff1681565b606060078054600181600116156101000203166002900480601f016020809104026020016040519081016040528092919081815260200182805460018160011615610100020316600290048015611f845780601f10611f5957610100808354040283529160200191611f84565b820191906000526020600020905b815481529060010190602001808311611f6757829003601f168201915b5050505050905090565b600080600a60008481526020019081526020016000209050600015158160070160009054906101000a900460ff16151514611fc857600080fd5b600060106000858152602001908152602001600020905060018260070160006101000a81548160ff02191690831515021790555060008160000154141580156120265750600115158260070160019054906101000a900460ff161515145b156121fa57600c6000815480929190600101919050555061206d8160010160009054906101000a900473ffffffffffffffffffffffffffffffffffffffff16600c546138c2565b612115600c54836002018054600181600116156101000203166002900480601f01602080910402602001604051908101604052809291908181526020018280546001816001161561010002031660029004801561210b5780601f106120e05761010080835404028352916020019161210b565b820191906000526020600020905b8154815290600101906020018083116120ee57829003601f168201915b50505050506138e0565b8060000154600e600086815260200190815260200160002060008360010160009054906101000a900473ffffffffffffffffffffffffffffffffffffffff1673ffffffffffffffffffffffffffffffffffffffff1673ffffffffffffffffffffffffffffffffffffffff168152602001908152602001600020600082825403925050819055508160000160009054906101000a900473ffffffffffffffffffffffffffffffffffffffff1673ffffffffffffffffffffffffffffffffffffffff166108fc82600001549081150290604051600060405180830381858888f19350505050505b8060010160009054906101000a900473ffffffffffffffffffffffffffffffffffffffff1673ffffffffffffffffffffffffffffffffffffffff168260000160009054906101000a900473ffffffffffffffffffffffffffffffffffffffff1673ffffffffffffffffffffffffffffffffffffffff16857f5242a85bb77fd7a409b137e5184055c8d8f09259299447f56aca5dc69dce7f4160405160405180910390a48160070160009054906101000a900460ff1692505050919050565b6000816122c361478c565b600a6000838152602001908152602001600020604051806101400160405290816000820160009054906101000a900473ffffffffffffffffffffffffffffffffffffffff1673ffffffffffffffffffffffffffffffffffffffff1673ffffffffffffffffffffffffffffffffffffffff16815260200160018201548152602001600282018054600181600116156101000203166002900480601f0160208091040260200160405190810160405280929190818152602001828054600181600116156101000203166002900480156123db5780601f106123b0576101008083540402835291602001916123db565b820191906000526020600020905b8154815290600101906020018083116123be57829003601f168201915b505050505081526020016003820160009054906101000a900460ff161515151581526020016004820154815260200160058201548152602001600682015481526020016007820160009054906101000a900460ff161515151581526020016007820160019054906101000a900460ff16151515158152602001600882018054600181600116156101000203166002900480601f0160208091040260200160405190810160405280929190818152602001828054600181600116156101000203166002900480156124ec5780601f106124c1576101008083540402835291602001916124ec565b820191906000526020600020905b8154815290600101906020018083116124cf57829003601f168201915b5050505050815250509050806000015173ffffffffffffffffffffffffffffffffffffffff163373ffffffffffffffffffffffffffffffffffffffff16141561253457600080fd5b8361253d61478c565b600a6000838152602001908152602001600020604051806101400160405290816000820160009054906101000a900473ffffffffffffffffffffffffffffffffffffffff1673ffffffffffffffffffffffffffffffffffffffff1673ffffffffffffffffffffffffffffffffffffffff16815260200160018201548152602001600282018054600181600116156101000203166002900480601f0160208091040260200160405190810160405280929190818152602001828054600181600116156101000203166002900480156126555780601f1061262a57610100808354040283529160200191612655565b820191906000526020600020905b81548152906001019060200180831161263857829003601f168201915b505050505081526020016003820160009054906101000a900460ff161515151581526020016004820154815260200160058201548152602001600682015481526020016007820160009054906101000a900460ff161515151581526020016007820160019054906101000a900460ff16151515158152602001600882018054600181600116156101000203166002900480601f0160208091040260200160405190810160405280929190818152602001828054600181600116156101000203166002900480156127665780601f1061273b57610100808354040283529160200191612766565b820191906000526020600020905b81548152906001019060200180831161274957829003601f168201915b5050505050815250509050806020015134101561278257600080fd5b600034141561279057600080fd5b60006010600088815260200190815260200160002090506000600a60008981526020019081526020016000209050426001826006015402826005015401116127d757600080fd5b600015158160070160009054906101000a900460ff161515146127f957600080fd5b600034600e60008b815260200190815260200160002060003373ffffffffffffffffffffffffffffffffffffffff1673ffffffffffffffffffffffffffffffffffffffff168152602001908152602001600020540190508260000154811161286057600080fd5b6000600e60008b815260200190815260200160002060008560010160009054906101000a900473ffffffffffffffffffffffffffffffffffffffff1673ffffffffffffffffffffffffffffffffffffffff1673ffffffffffffffffffffffffffffffffffffffff16815260200190815260200160002054905081600e60008c815260200190815260200160002060003373ffffffffffffffffffffffffffffffffffffffff1673ffffffffffffffffffffffffffffffffffffffff16815260200190815260200160002081905550808211612966578083600401548301111561295157808460000181905550612961565b8260040154820184600001819055505b612a81565b8360010160009054906101000a900473ffffffffffffffffffffffffffffffffffffffff1673ffffffffffffffffffffffffffffffffffffffff163373ffffffffffffffffffffffffffffffffffffffff1614612a7d57338460010160006101000a81548173ffffffffffffffffffffffffffffffffffffffff021916908373ffffffffffffffffffffffffffffffffffffffff16021790555080836004015483011115612a6c5760001515601160009054906101000a900460ff1615151415612a3857808460000181905550612a67565b826004015483600101540184600001819055506001601160006101000a81548160ff0219169083151502179055505b612a7c565b8260040154820184600001819055505b5b8190505b600015158360070160019054906101000a900460ff1615151415612aa9573484600001819055505b8360010160009054906101000a900473ffffffffffffffffffffffffffffffffffffffff1673ffffffffffffffffffffffffffffffffffffffff168a3373ffffffffffffffffffffffffffffffffffffffff167fe209fb7fe1214f754b59704eb777dbfb99e4a469eda593538d8fb30ca9681abc8585896000015460405180848152602001838152602001828152602001935050505060405180910390a460018360070160016101000a81548160ff021916908315150217905550600198505050505050505050919050565b612b7d613438565b73ffffffffffffffffffffffffffffffffffffffff168273ffffffffffffffffffffffffffffffffffffffff161415612c1e576040517f08c379a00000000000000000000000000000000000000000000000000000000081526004018080602001828103825260198152602001807f4552433732313a20617070726f766520746f2063616c6c65720000000000000081525060200191505060405180910390fd5b8060056000612c2b613438565b73ffffffffffffffffffffffffffffffffffffffff1673ffffffffffffffffffffffffffffffffffffffff16815260200190815260200160002060008473ffffffffffffffffffffffffffffffffffffffff1673ffffffffffffffffffffffffffffffffffffffff16815260200190815260200160002060006101000a81548160ff0219169083151502179055508173ffffffffffffffffffffffffffffffffffffffff16612cd8613438565b73ffffffffffffffffffffffffffffffffffffffff167f17307eab39ab6107e8899845ad3d59bd9653f200f220920489ca2b5937696c3183604051808215151515815260200191505060405180910390a35050565b6000851015612da4576040517f08c379a000000000000000000000000000000000000000000000000000000000815260040180806020018281038252601c8152602001807f50726963652063616e6e6f74206265206c65737373207468616e20300000000081525060200191505060405180910390fd5b600d6000815480929190600101919050555060004290506040518061014001604052803373ffffffffffffffffffffffffffffffffffffffff16815260200187815260200186815260200160011515815260200185815260200182815260200184815260200160001515815260200160001515815260200183815250600a6000600d54815260200190815260200160002060008201518160000160006101000a81548173ffffffffffffffffffffffffffffffffffffffff021916908373ffffffffffffffffffffffffffffffffffffffff160217905550602082015181600101556040820151816002019080519060200190612ea292919061482b565b5060608201518160030160006101000a81548160ff0219169083151502179055506080820151816004015560a0820151816005015560c0820151816006015560e08201518160070160006101000a81548160ff0219169083151502179055506101008201518160070160016101000a81548160ff021916908315150217905550610120820151816008019080519060200190612f3f92919061482b565b509050503373ffffffffffffffffffffffffffffffffffffffff167fe4915238a88e31f00a90b7e08676caf678bc06d9da9b1a0ac3c86fc026859d01600d54848985886040518086815260200180602001858152602001848152602001838152602001828103825286818151815260200191508051906020019080838360005b83811015612fda578082015181840152602081019050612fbf565b50505050905090810190601f1680156130075780820380516001836020036101000a031916815260200191505b50965050505050505060405180910390a2505050505050565b600c5481565b613037613031613438565b8361350e565b61308c576040517f08c379a0000000000000000000000000000000000000000000000000000000008152600401808060200182810382526031815260200180614b996031913960400191505060405180910390fd5b6130988484848461396a565b50505050565b60606130a98261341b565b6130fe576040517f08c379a000000000000000000000000000000000000000000000000000000000815260040180806020018281038252602f815260200180614b49602f913960400191505060405180910390fd5b6060600860008481526020019081526020016000208054600181600116156101000203166002900480601f0160208091040260200160405190810160405280929190818152602001828054600181600116156101000203166002900480156131a75780601f1061317c576101008083540402835291602001916131a7565b820191906000526020600020905b81548152906001019060200180831161318a57829003601f168201915b505050505090506000600980546001816001161561010002031660029004905014156131d65780915050613382565b6000815111156132af5760098160405160200180838054600181600116156101000203166002900480156132415780601f1061321f576101008083540402835291820191613241565b820191906000526020600020905b81548152906001019060200180831161322d575b505082805190602001908083835b60208310613272578051825260208201915060208101905060208303925061324f565b6001836020036101000a03801982511681845116808217855250505050505090500192505050604051602081830303815290604052915050613382565b60096132ba846139dc565b60405160200180838054600181600116156101000203166002900480156133185780601f106132f6576101008083540402835291820191613318565b820191906000526020600020905b815481529060010190602001808311613304575b505082805190602001908083835b602083106133495780518252602082019150602081019050602083039250613326565b6001836020036101000a038019825116818451168082178552505050505050905001925050506040516020818303038152906040529150505b919050565b6000600560008473ffffffffffffffffffffffffffffffffffffffff1673ffffffffffffffffffffffffffffffffffffffff16815260200190815260200160002060008373ffffffffffffffffffffffffffffffffffffffff1673ffffffffffffffffffffffffffffffffffffffff16815260200190815260200160002060009054906101000a900460ff16905092915050565b6000613431826002613b0c90919063ffffffff16565b9050919050565b600033905090565b816004600083815260200190815260200160002060006101000a81548173ffffffffffffffffffffffffffffffffffffffff021916908373ffffffffffffffffffffffffffffffffffffffff160217905550808273ffffffffffffffffffffffffffffffffffffffff166134b383611d18565b73ffffffffffffffffffffffffffffffffffffffff167f8c5be1e5ebec7d5bd14f71427d1e84f3dd0314c0f7b2291e5b200ac8c7c3b92560405160405180910390a45050565b600061350782600001613b26565b9050919050565b60006135198261341b565b61356e576040517f08c379a000000000000000000000000000000000000000000000000000000000815260040180806020018281038252602c8152602001806149ef602c913960400191505060405180910390fd5b600061357983611d18565b90508073ffffffffffffffffffffffffffffffffffffffff168473ffffffffffffffffffffffffffffffffffffffff1614806135e857508373ffffffffffffffffffffffffffffffffffffffff166135d08461107b565b73ffffffffffffffffffffffffffffffffffffffff16145b806135f957506135f88185613387565b5b91505092915050565b8273ffffffffffffffffffffffffffffffffffffffff1661362282611d18565b73ffffffffffffffffffffffffffffffffffffffff161461368e576040517f08c379a0000000000000000000000000000000000000000000000000000000008152600401808060200182810382526029815260200180614b206029913960400191505060405180910390fd5b600073ffffffffffffffffffffffffffffffffffffffff168273ffffffffffffffffffffffffffffffffffffffff161415613714576040517f08c379a00000000000000000000000000000000000000000000000000000000081526004018080602001828103825260248152602001806149a56024913960400191505060405180910390fd5b61371f838383613b37565b61372a600082613440565b61377b81600160008673ffffffffffffffffffffffffffffffffffffffff1673ffffffffffffffffffffffffffffffffffffffff168152602001908152602001600020613b3c90919063ffffffff16565b506137cd81600160008573ffffffffffffffffffffffffffffffffffffffff1673ffffffffffffffffffffffffffffffffffffffff168152602001908152602001600020613b5690919063ffffffff16565b506137e481836002613b709092919063ffffffff16565b50808273ffffffffffffffffffffffffffffffffffffffff168473ffffffffffffffffffffffffffffffffffffffff167fddf252ad1be2c89b69c2b068fc378daa952ba7f163c4a11628f55a4df523b3ef60405160405180910390a4505050565b60006138548360000183613ba5565b60001c905092915050565b6000806000806138728660000186613c28565b915091508160001c8160001c8090509350935050509250929050565b60006138a1846000018460001b84613cc1565b60001c90509392505050565b60006138bb82600001613db7565b9050919050565b6138dc828260405180602001604052806000815250613dc8565b5050565b6138e98261341b565b61393e576040517f08c379a000000000000000000000000000000000000000000000000000000000815260040180806020018281038252602c815260200180614af4602c913960400191505060405180910390fd5b806008600084815260200190815260200160002090805190602001906139659291906148ab565b505050565b613975848484613602565b61398184848484613e39565b6139d6576040517f08c379a00000000000000000000000000000000000000000000000000000000081526004018080602001828103825260328152602001806149736032913960400191505060405180910390fd5b50505050565b60606000821415613a24576040518060400160405280600181526020017f30000000000000000000000000000000000000000000000000000000000000008152509050613b07565b600082905060005b60008214613a4e578080600101915050600a8281613a4657fe5b049150613a2c565b6060816040519080825280601f01601f191660200182016040528015613a835781602001600182028036833780820191505090505b50905060006001830390508593505b60008414613aff57600a8481613aa457fe5b0660300160f81b82828060019003935081518110613abe57fe5b60200101907effffffffffffffffffffffffffffffffffffffffffffffffffffffffffffff1916908160001a905350600a8481613af757fe5b049350613a92565b819450505050505b919050565b6000613b1e836000018360001b61407e565b905092915050565b600081600001805490509050919050565b505050565b6000613b4e836000018360001b6140a1565b905092915050565b6000613b68836000018360001b614189565b905092915050565b6000613b9c846000018460001b8473ffffffffffffffffffffffffffffffffffffffff1660001b6141f9565b90509392505050565b600081836000018054905011613c06576040517f08c379a00000000000000000000000000000000000000000000000000000000081526004018080602001828103825260228152602001806149516022913960400191505060405180910390fd5b826000018281548110613c1557fe5b9060005260206000200154905092915050565b60008082846000018054905011613c8a576040517f08c379a0000000000000000000000000000000000000000000000000000000008152600401808060200182810382526022815260200180614aa66022913960400191505060405180910390fd5b6000846000018481548110613c9b57fe5b906000526020600020906002020190508060000154816001015492509250509250929050565b60008084600101600085815260200190815260200160002054905060008114158390613d88576040517f08c379a00000000000000000000000000000000000000000000000000000000081526004018080602001828103825283818151815260200191508051906020019080838360005b83811015613d4d578082015181840152602081019050613d32565b50505050905090810190601f168015613d7a5780820380516001836020036101000a031916815260200191505b509250505060405180910390fd5b50846000016001820381548110613d9b57fe5b9060005260206000209060020201600101549150509392505050565b600081600001805490509050919050565b613dd283836142d5565b613ddf6000848484613e39565b613e34576040517f08c379a00000000000000000000000000000000000000000000000000000000081526004018080602001828103825260328152602001806149736032913960400191505060405180910390fd5b505050565b6000613e5a8473ffffffffffffffffffffffffffffffffffffffff166144c9565b613e675760019050614076565b6060613ffd63150b7a0260e01b613e7c613438565b888787604051602401808573ffffffffffffffffffffffffffffffffffffffff1673ffffffffffffffffffffffffffffffffffffffff1681526020018473ffffffffffffffffffffffffffffffffffffffff1673ffffffffffffffffffffffffffffffffffffffff16815260200183815260200180602001828103825283818151815260200191508051906020019080838360005b83811015613f2c578082015181840152602081019050613f11565b50505050905090810190601f168015613f595780820380516001836020036101000a031916815260200191505b5095505050505050604051602081830303815290604052907bffffffffffffffffffffffffffffffffffffffffffffffffffffffff19166020820180517bffffffffffffffffffffffffffffffffffffffffffffffffffffffff8381831617835250505050604051806060016040528060328152602001614973603291398773ffffffffffffffffffffffffffffffffffffffff166144dc9092919063ffffffff16565b9050600081806020019051602081101561401657600080fd5b8101908080519060200190929190505050905063150b7a0260e01b7bffffffffffffffffffffffffffffffffffffffffffffffffffffffff1916817bffffffffffffffffffffffffffffffffffffffffffffffffffffffff191614925050505b949350505050565b600080836001016000848152602001908152602001600020541415905092915050565b6000808360010160008481526020019081526020016000205490506000811461417d57600060018203905060006001866000018054905003905060008660000182815481106140ec57fe5b906000526020600020015490508087600001848154811061410957fe5b906000526020600020018190555060018301876001016000838152602001908152602001600020819055508660000180548061414157fe5b60019003818190600052602060002001600090559055866001016000878152602001908152602001600020600090556001945050505050614183565b60009150505b92915050565b600061419583836144f4565b6141ee5782600001829080600181540180825580915050600190039060005260206000200160009091909190915055826000018054905083600101600084815260200190815260200160002081905550600190506141f3565b600090505b92915050565b60008084600101600085815260200190815260200160002054905060008114156142a0578460000160405180604001604052808681526020018581525090806001815401808255809150506001900390600052602060002090600202016000909190919091506000820151816000015560208201518160010155505084600001805490508560010160008681526020019081526020016000208190555060019150506142ce565b828560000160018303815481106142b357fe5b90600052602060002090600202016001018190555060009150505b9392505050565b600073ffffffffffffffffffffffffffffffffffffffff168273ffffffffffffffffffffffffffffffffffffffff161415614378576040517f08c379a00000000000000000000000000000000000000000000000000000000081526004018080602001828103825260208152602001807f4552433732313a206d696e7420746f20746865207a65726f206164647265737381525060200191505060405180910390fd5b6143818161341b565b156143f4576040517f08c379a000000000000000000000000000000000000000000000000000000000815260040180806020018281038252601c8152602001807f4552433732313a20746f6b656e20616c7265616479206d696e7465640000000081525060200191505060405180910390fd5b61440060008383613b37565b61445181600160008573ffffffffffffffffffffffffffffffffffffffff1673ffffffffffffffffffffffffffffffffffffffff168152602001908152602001600020613b5690919063ffffffff16565b5061446881836002613b709092919063ffffffff16565b50808273ffffffffffffffffffffffffffffffffffffffff16600073ffffffffffffffffffffffffffffffffffffffff167fddf252ad1be2c89b69c2b068fc378daa952ba7f163c4a11628f55a4df523b3ef60405160405180910390a45050565b600080823b905060008111915050919050565b60606144eb8484600085614517565b90509392505050565b600080836001016000848152602001908152602001600020541415905092915050565b606082471015614572576040517f08c379a00000000000000000000000000000000000000000000000000000000081526004018080602001828103825260268152602001806149c96026913960400191505060405180910390fd5b61457b856144c9565b6145ed576040517f08c379a000000000000000000000000000000000000000000000000000000000815260040180806020018281038252601d8152602001807f416464726573733a2063616c6c20746f206e6f6e2d636f6e747261637400000081525060200191505060405180910390fd5b600060608673ffffffffffffffffffffffffffffffffffffffff1685876040518082805190602001908083835b6020831061463d578051825260208201915060208101905060208303925061461a565b6001836020036101000a03801982511681845116808217855250505050505090500191505060006040518083038185875af1925050503d806000811461469f576040519150601f19603f3d011682016040523d82523d6000602084013e6146a4565b606091505b50915091506146b48282866146c0565b92505050949350505050565b606083156146d057829050614785565b6000835111156146e35782518084602001fd5b816040517f08c379a00000000000000000000000000000000000000000000000000000000081526004018080602001828103825283818151815260200191508051906020019080838360005b8381101561474a57808201518184015260208101905061472f565b50505050905090810190601f1680156147775780820380516001836020036101000a031916815260200191505b509250505060405180910390fd5b9392505050565b604051806101400160405280600073ffffffffffffffffffffffffffffffffffffffff1681526020016000815260200160608152602001600015158152602001600081526020016000815260200160008152602001600015158152602001600015158152602001606081525090565b604051806040016040528060008152602001600073ffffffffffffffffffffffffffffffffffffffff1681525090565b828054600181600116156101000203166002900490600052602060002090601f016020900481019282601f1061486c57805160ff191683800117855561489a565b8280016001018555821561489a579182015b8281111561489957825182559160200191906001019061487e565b5b5090506148a7919061492b565b5090565b828054600181600116156101000203166002900490600052602060002090601f016020900481019282601f106148ec57805160ff191683800117855561491a565b8280016001018555821561491a579182015b828111156149195782518255916020019190600101906148fe565b5b509050614927919061492b565b5090565b61494d91905b80821115614949576000816000905550600101614931565b5090565b9056fe456e756d657261626c655365743a20696e646578206f7574206f6620626f756e64734552433732313a207472616e7366657220746f206e6f6e20455243373231526563656976657220696d706c656d656e7465724552433732313a207472616e7366657220746f20746865207a65726f2061646472657373416464726573733a20696e73756666696369656e742062616c616e636520666f722063616c6c4552433732313a206f70657261746f7220717565727920666f72206e6f6e6578697374656e7420746f6b656e4552433732313a20617070726f76652063616c6c6572206973206e6f74206f776e6572206e6f7220617070726f76656420666f7220616c6c4552433732313a2062616c616e636520717565727920666f7220746865207a65726f20616464726573734552433732313a206f776e657220717565727920666f72206e6f6e6578697374656e7420746f6b656e456e756d657261626c654d61703a20696e646578206f7574206f6620626f756e64734552433732313a20617070726f76656420717565727920666f72206e6f6e6578697374656e7420746f6b656e4552433732314d657461646174613a2055524920736574206f66206e6f6e6578697374656e7420746f6b656e4552433732313a207472616e73666572206f6620746f6b656e2074686174206973206e6f74206f776e4552433732314d657461646174613a2055524920717565727920666f72206e6f6e6578697374656e7420746f6b656e4552433732313a20617070726f76616c20746f2063757272656e74206f776e65724552433732313a207472616e736665722063616c6c6572206973206e6f74206f776e6572206e6f7220617070726f766564a26469706673582212204eecd524842cda0f00ca901b39fceb7412a96613ac6cb20c7373f223e05e703564736f6c63430006030033",
  "source": "pragma solidity ^0.6.3;\r\n\r\nimport \"@openzeppelin/contracts/token/ERC721/ERC721.sol\";\r\nimport \"@openzeppelin/contracts/math/SafeMath.sol\";\r\n// import \"https://github.com/OpenZeppelin/openzeppelin-contracts/blob/8108f2f9b917616a8cd0661c31a211ad9f988110/contracts/token/ERC721/ERC721.sol\";\r\n// import \"https://github.com/OpenZeppelin/openzeppelin-contracts/blob/8108f2f9b917616a8cd0661c31a211ad9f988110/contracts/math/SafeMath.sol\";\r\n\r\ncontract ArtAuction is ERC721 {\r\n   \r\n    using SafeMath for uint256;  //For Future use\r\n\r\n\r\n    /*********************************** */\r\n    /****     STATE VARIABLES      ***** */\r\n    /*********************************** */  \r\n\r\n    //static and constant state variables\r\n    mapping(uint256 => ArtItem) private _artItems;  //Map id to ArtItem\r\n    address public owner;   // contract owner\r\n\r\n    //dynamic and changing state variables\r\n    uint256 public _tokenIds;  // Unique Image ID that are tokenized\r\n    uint256 public _artItemIds; // Unique ID of images for sale but not tokenized    \r\n \r\n    mapping(uint256=>mapping(address => uint256)) public fundsByBidder; //map _artItemIds to fundsByBidder    \r\n    mapping(int256=>uint256) token; //Map tokenIds to _artItemIds so as to connect to struct.\r\n    mapping(uint256=>bidding) public bid;  //mapping tokenid to bidding\r\n    bool firsttime = false;  //to mart first successfull bid\r\n\r\n\r\n\r\n    /***************************** */\r\n    /*****      EVENTS      ****** */\r\n    /***************************** */  \r\n\r\n    event LogBid(address indexed bidder, uint indexed artItemId, uint bid, address indexed highestBidder, uint highestBid, uint highestBindingBid);  \r\n    event LogWithdrawal(uint indexed artItemId, address indexed withdrawer, address indexed withdrawalAccount, uint amount);\r\n    event LogCanceled(uint256 indexed artItemId,address indexed seller,address indexed winner);\r\n    event LogAddItem(uint256 _artItemIds, string name, address payable indexed seller, uint256 price, uint nowTime, uint timePeriod);\r\n\r\n  \r\n    /***************************** */\r\n    /*****     STRUCTS      ****** */\r\n    /***************************** */  \r\n\r\n    struct ArtItem {\r\n        address payable seller; //address of seller\r\n        uint256 minbid; //minimum price by artist\r\n        string tokenURI;  //IPFS URL\r\n        bool exists;    //token by id exists or not\r\n        uint bidIncrement; //incremention of bid\r\n        uint time;          // art item creation timestamp\r\n        uint timePeriod;    // duration of auction\r\n        bool cancelled;     // checks if auction is closed\r\n        bool auctionstarted;    // checks if aution is open\r\n        string name;        // name of art item\r\n    }\r\n   \r\n    struct bidding{\r\n        uint highestBindingBid; // highestBindingBid of the tokenid(tokenized artId)\r\n        address payable highestBidder; //current highest bidder\r\n    }\r\n\r\n\r\n    /******************************* */\r\n    /****     CONSTRUCTOR      ***** */\r\n    /******************************* */  \r\n    \r\n    //Note: Token is minted after it is sold or after auction ends\r\n    //Initializing ERC721\r\n    constructor() public ERC721(\"DART\", \"ART\"){\r\n        owner=msg.sender;\r\n    }\r\n\r\n\r\n \r\n    /***************************** */\r\n    /****     MODIFIERS      ***** */\r\n    /***************************** */  \r\n \r\n    // check if item exists\r\n    modifier artItemExist(uint256 id) {\r\n        require(_artItems[id].exists, \"Not Found\");\r\n        _;\r\n    }\r\n   \r\n    // ensure caller is art item owner\r\n    modifier onlyNotOwner(uint256 id) {\r\n        ArtItem memory artItem = _artItems[id];  \r\n        if (msg.sender == artItem.seller) revert();\r\n        _;\r\n    }\r\n\r\n    modifier onlyOwner(uint256 id)\r\n    {\r\n        ArtItem memory artItem = _artItems[id];  \r\n        if (msg.sender != artItem.seller) revert();\r\n         _;\r\n    }\r\n     \r\n    modifier minbid(uint256 id){\r\n        ArtItem memory artItem = _artItems[id];\r\n        if(msg.value<artItem.minbid) revert();\r\n        _;\r\n    }\r\n\r\n\r\n    /************************************** */\r\n    /****     ART ITEM FUNCTIONS      ***** */\r\n    /************************************** */  \r\n\r\n    function addArtItem(uint256 price, string memory tokenURI, uint _bidincrement, uint timePeriod, string memory name) public {\r\n        require(price >= 0, \"Price cannot be lesss than 0\");\r\n\r\n        _artItemIds++;\r\n        uint nowTime = now;\r\n        _artItems[_artItemIds] = ArtItem(msg.sender, price, tokenURI, true, _bidincrement, nowTime, timePeriod,false,false,name);\r\n        emit LogAddItem(_artItemIds, name, msg.sender, price, nowTime, timePeriod);\r\n    }\r\n\r\n       \r\n    //get art item info\r\n    function getArtItem(uint256 id)\r\n        public\r\n        view\r\n        artItemExist(id)\r\n        returns (uint256, uint256, string memory, uint, uint, uint, bool, string memory, address payable)\r\n    {\r\n        ArtItem memory artItem = _artItems[id];\r\n        bidding memory bid = bid[id];\r\n        return (id, artItem.minbid, artItem.tokenURI, bid.highestBindingBid,artItem.time,artItem.timePeriod,artItem.cancelled,artItem.name,artItem.seller);\r\n    }\r\n   \r\n\r\n\r\n\r\n    /************************************** */\r\n    /****     AUCTION FUNCTIONS      ***** */\r\n    /************************************** */  \r\n   \r\n    //Cancel auction\r\n    function cancelAuction(uint256 id) \r\n        public \r\n        payable \r\n        returns (bool success)\r\n    {\r\n        ArtItem storage artItem = _artItems[id];  \r\n        require(artItem.cancelled == false);\r\n\r\n        // if((artItem.time + (artItem.timePeriod * 1 seconds) < now)){  //mint token if auctionstarted and not expired\r\n            bidding storage bid = bid[id];\r\n            artItem.cancelled = true;\r\n            // the auction's owner should be allowed to withdraw the highestBindingBid\r\n            \r\n            if (bid.highestBindingBid != 0 && artItem.auctionstarted == true){\r\n                _tokenIds++;\r\n                //token[_tokenIds] = _artItemIds;    \r\n                _safeMint(bid.highestBidder, _tokenIds);\r\n                _setTokenURI(_tokenIds, artItem.tokenURI);\r\n                fundsByBidder[id][bid.highestBidder] -= bid.highestBindingBid;\r\n\r\n                // send the funds\r\n                (artItem.seller).send(bid.highestBindingBid); \r\n            }\r\n\r\n            LogCanceled(id,artItem.seller,bid.highestBidder);\r\n        // }\r\n        return artItem.cancelled;   \r\n    }\r\n   \r\n    function placeBid(uint256 id) \r\n        public\r\n        payable\r\n        onlyNotOwner(id)\r\n        minbid(id)\r\n        returns (bool success)\r\n    {  \r\n    \r\n        // reject payments of 0 ETH/MATIC\r\n        if (msg.value == 0) revert();\r\n    \r\n        // calculate the user's total bid based on the current amount they've sent to the contract\r\n        // plus whatever has been sent with this transaction\r\n        bidding storage bid = bid[id];\r\n        ArtItem storage artItem = _artItems[id];  \r\n        require((artItem.time + (artItem.timePeriod * 1 seconds) > now));\r\n        require(artItem.cancelled == false);\r\n    \r\n        uint newBid = fundsByBidder[id][msg.sender] + msg.value;\r\n\r\n        // if the user isn't even willing to overbid the highest binding bid, there's nothing for us\r\n        // to do except revert the transaction.\r\n        if (newBid <= bid.highestBindingBid) revert();\r\n\r\n        // grab the previous highest bid (before updating fundsByBidder, in case msg.sender is the\r\n        // highestBidder and is just increasing their maximum bid).\r\n        uint highestBid = fundsByBidder[id][bid.highestBidder];\r\n\r\n        fundsByBidder[id][msg.sender] = newBid;\r\n\r\n        if (newBid <= highestBid) {\r\n            // if the user has overbid the highestBindingBid but not the highestBid, we simply\r\n            // increase the highestBindingBid and leave highestBidder alone.\r\n\r\n            // note that this case is impossible if msg.sender == highestBidder because you can never\r\n            // bid less ETH than you already have.\r\n            if(newBid + artItem.bidIncrement > highestBid){\r\n                bid.highestBindingBid = highestBid;\r\n            }\r\n            else {\r\n                bid.highestBindingBid = newBid + artItem.bidIncrement;\r\n            }\r\n        } else {\r\n            // if msg.sender is already the highest bidder, they must simply be wanting to raise\r\n            // their maximum bid, in which case we shouldn't increase the highestBindingBid.\r\n\r\n            // if the user is NOT highestBidder, and has overbid highestBid completely, we set them\r\n            // as the new highestBidder and recalculate highestBindingBid.\r\n\r\n            if (msg.sender != bid.highestBidder) {\r\n                bid.highestBidder = msg.sender;\r\n\r\n                if(newBid + artItem.bidIncrement > highestBid){\r\n                    if(firsttime == false){\r\n                        bid.highestBindingBid = highestBid;\r\n                    }\r\n                    else{\r\n                        bid.highestBindingBid = artItem.minbid + artItem.bidIncrement;\r\n                        firsttime=true;\r\n                    }\r\n                }\r\n                else{\r\n                    bid.highestBindingBid = newBid + artItem.bidIncrement;\r\n                }\r\n            }\r\n\r\n            highestBid = newBid;\r\n        }\r\n\r\n        if(artItem.auctionstarted == false){\r\n            bid.highestBindingBid = msg.value;\r\n        }\r\n\r\n        LogBid(msg.sender, id, newBid, bid.highestBidder, highestBid, bid.highestBindingBid);\r\n        artItem.auctionstarted = true;\r\n        return true;\r\n    }\r\n   \r\n    function withdraw(uint256 id) \r\n        public \r\n        payable \r\n        onlyNotOwner(id)\r\n        returns (bool success)\r\n    {  \r\n        require(_artItems[id].cancelled == true);\r\n        require(_artItems[id].auctionstarted == true);\r\n        address payable withdrawalAccount;\r\n        uint withdrawalAmount;\r\n        bidding storage bid = bid[id];\r\n   \r\n        if (msg.sender == bid.highestBidder) {\r\n            // the highest bidder should only be allowed to withdraw the difference between their\r\n            // highest bid and the highestBindingBid\r\n            withdrawalAccount = bid.highestBidder;\r\n            withdrawalAmount = fundsByBidder[id][bid.highestBidder];\r\n        }\r\n        else {\r\n            // anyone who participated but did not win the auction should be allowed to withdraw\r\n            // the full amount of their funds\r\n            withdrawalAccount = msg.sender;\r\n            withdrawalAmount = fundsByBidder[id][withdrawalAccount];\r\n        }\r\n\r\n        if (withdrawalAmount == 0) revert();\r\n\r\n        fundsByBidder[id][withdrawalAccount] -= withdrawalAmount;\r\n\r\n        // send the funds\r\n        if (!msg.sender.send(withdrawalAmount)) revert();\r\n\r\n        LogWithdrawal(id, msg.sender, withdrawalAccount, withdrawalAmount);\r\n\r\n        return true;\r\n    }\r\n       \r\n}\r\n",
  "sourcePath": "C:/Users/USER/Desktop/BLOCKCHAIN/EtherPunk/NFT-Auction-Marketplace/src/contracts/ArtAuction.sol",
  "compiler": {
    "name": "solc",
    "version": "0.6.3+commit.8dda9521.Emscripten.clang"
  },
  "schemaVersion": "3.3.1",
  "updatedAt": "2021-02-28T12:06:36.374Z",
  "networkType": "ethereum",
  "devdoc": {
    "methods": {
      "approve(address,uint256)": {
        "details": "See {IERC721-approve}."
      },
      "balanceOf(address)": {
        "details": "See {IERC721-balanceOf}."
      },
      "baseURI()": {
        "details": "Returns the base URI set via {_setBaseURI}. This will be automatically added as a prefix in {tokenURI} to each token's URI, or to the token ID if no specific URI is set for that token ID."
      },
      "getApproved(uint256)": {
        "details": "See {IERC721-getApproved}."
      },
      "isApprovedForAll(address,address)": {
        "details": "See {IERC721-isApprovedForAll}."
      },
      "name()": {
        "details": "See {IERC721Metadata-name}."
      },
      "ownerOf(uint256)": {
        "details": "See {IERC721-ownerOf}."
      },
      "safeTransferFrom(address,address,uint256)": {
        "details": "See {IERC721-safeTransferFrom}."
      },
      "safeTransferFrom(address,address,uint256,bytes)": {
        "details": "See {IERC721-safeTransferFrom}."
      },
      "setApprovalForAll(address,bool)": {
        "details": "See {IERC721-setApprovalForAll}."
      },
      "supportsInterface(bytes4)": {
        "details": "See {IERC165-supportsInterface}.     * Time complexity O(1), guaranteed to always use less than 30 000 gas."
      },
      "symbol()": {
        "details": "See {IERC721Metadata-symbol}."
      },
      "tokenByIndex(uint256)": {
        "details": "See {IERC721Enumerable-tokenByIndex}."
      },
      "tokenOfOwnerByIndex(address,uint256)": {
        "details": "See {IERC721Enumerable-tokenOfOwnerByIndex}."
      },
      "tokenURI(uint256)": {
        "details": "See {IERC721Metadata-tokenURI}."
      },
      "totalSupply()": {
        "details": "See {IERC721Enumerable-totalSupply}."
      },
      "transferFrom(address,address,uint256)": {
        "details": "See {IERC721-transferFrom}."
      }
    }
  },
  "userdoc": {
    "methods": {
      "addArtItem(uint256,string,uint256,uint256,string)": {
        "notice": "************************************ "
      },
      "cancelAuction(uint256)": {
        "notice": "************************************ "
      },
      "constructor": "***************************** "
    }
  }
}